:020000040800F2
:100000006004002001010008430A00083B0A0008C0
:100010003F0A0008CF020008B50D000800000000EC
:10002000000000000000000000000000650B000858
:100030007908000800000000C90A0008510C0008F7
:100040001B0100081B0100081B0100081B01000820
:100050001B0100081B0100081B0100081B01000810
:100060001B0100081B0100081B0100081B01000800
:100070001B0100081B0100081B0100081B010008F0
:100080001B0100081B0100081B0100081B010008E0
:10009000210D00081B0100081B0100081B010008BE
:1000A0001B0100081B0100081B0100081B010008C0
:1000B0001B0100081B010008000000001B010008D4
:1000C0001B01000800000000000000001B010008E8
:1000D000000000001B0100081B01000800000000D8
:1000E0001B0100081B0100081B010008DFF80CD0F1
:1000F00000F018F800480047711200086004002062
:100100000648804706480047FEE7FEE7FEE7FEE7B1
:10011000FEE7FEE7FEE7FEE7FEE7FEE7C10C0008AC
:10012000ED000008064C074D06E0E06840F00103D2
:1001300094E8070098471034AC42F6D3FFF7DAFF93
:10014000A4150008C415000821B1826842F001021C
:10015000826003E0826822F001028260704721B170
:10016000826842F48072826003E0826822F48072C6
:1001700082607047014600208A6802F004020AB1DA
:10018000012000E000207047014600208A6802F04C
:1001900008020AB1012000E00020704730B5024695
:1001A0000020002350680F4C20400D790C6844EA71
:1001B00005242043506090680B4C2040D1E9025444
:1001C0002C434D7944EA450420439060D06A20F4E2
:1001D00070000C7C641EE4B2234340EA0350D062FA
:1001E00030BD0000FFFEF0FFFDF7F1FFF0B5044663
:1001F0000D4600200021092D11DDE068A5F10A0659
:1002000006EB4607072606FA07F18843A5F10A061A
:1002100006EB460603FA06F10843E0600CE02069AD
:1002200005EB4507072606FA07F1884305EB450667
:1002300003FA06F108432061072A0FDA606B561EA5
:1002400006EB86071F2606FA07F18843561E06EBC3
:10025000860605FA06F10843606322E00D2A0FDAEC
:10026000206BD61F06EB86071F2606FA07F1884388
:10027000D61F06EB860605FA06F10843206310E058
:10028000E06AA2F10D0606EB86071F2606FA07F1C3
:100290008843A2F10D0606EB860605FA06F108432F
:1002A000E062F0BD816841F008018160704721B1D2
:1002B000826842F4A002826003E0826822F4A00215
:1002C00082607047816841F004018160704700BF1F
:1002D000FEE7000010B504460B48844209D1012115
:1002E000480600F01FFC00214FF0007000F01AFCDF
:1002F00008E00121880600F015FC00214FF0806025
:1003000000F010FC10BD00000064004010B500219A
:10031000837A012202FA03F13D4A126842F0010297
:100320003B4B1A603A4A1C3212688A43384B1C33E2
:100330001A60027BCAB9364A0C3212688A43344BBF
:100340000C331A604288C38842EA0343304A403281
:10035000847A42F834300288838842EA03432C4A84
:100360004032847A02EBC4025360027B012A19D125
:10037000274A0C3212680A43254B0C331A60428814
:10038000038842EA0343224A4032847A42F83430F6
:10039000C288838842EA03431D4A4032847A02EBD2
:1003A000C4025360C27A3AB9194A121D12688A43CC
:1003B000174B1B1D1A6006E0154A121D12680A43EE
:1003C000134B1B1D1A60028932B9114A143212688C
:1003D0008A430F4B14331A600289012A06D10C4A52
:1003E000143212680A430A4B14331A60427B012A02
:1003F00006D1074A1C3212680A43054B1C331A60A7
:10040000034A126822F00102014B1A6010BD00007D
:10041000006600401AB143690B43436102E043693F
:100420008B434361704730B50246002000231468B7
:1004300024F002041460146844F00104146000E025
:100440005B1C546804F001041CB94FF6FF74A3420E
:10045000F6D1546804F001040CB900206CE08C79EA
:10046000012C04D1146844F08004146003E0146883
:1004700024F080041460CC79012C04D1146844F079
:100480004004146003E0146824F0400414600C7A03
:10049000012C04D1146844F02004146003E01468B3
:1004A00024F0200414604C7A012C04D1146844F028
:1004B0001004146003E0146824F0100414608C7AB3
:1004C000012C04D1146844F00804146003E014689B
:1004D00024F008041460CC7A012C04D1146844F090
:1004E0000404146003E0146824F0040414608C789D
:1004F000A407CD7844EA05640D7944EA05444D79B2
:1005000044EA05540D886D1E2C43D461146824F010
:1005100001041460002300E05B1C546804F0010433
:100520001CB14FF6FF74A342F6D1546804F00104E5
:100530000CB1002000E0012030BD10B500F5D873EB
:1005400003EB01131B6803F004031372137A53B90E
:1005500000F5D87303EB01131B6840F2FF7404EA43
:100560005353136009E000F5D87303EB01131B68C4
:100570006FF0604404EAD303536000F5D87303EBD3
:1005800001131B6803F00203537200F5D87303EBE9
:1005900001135B6803F00F03937200F5D87303EB4C
:1005A00001135B681B0AD37400F5D87303EB0113C6
:1005B0009B68D37200F5D87303EB01139B681C0A88
:1005C000147300F5D87303EB01139B681C0C547370
:1005D00000F5D87303EB01139B681B0E937300F5B2
:1005E000D87303EB0113DB68D37300F5D87303EB07
:1005F0000113DB681C0A147400F5D87303EB0113B4
:10060000DB681C0C547400F5D87303EB0113DB6832
:100610001B0E937421B9C36843F02003C36003E049
:10062000036943F02003036110BD00218171C17192
:10063000017241728172C1728170C17003210171B6
:100640000221417101210180704710B5024600204E
:10065000936803F08063B3F1806F00D110E093687A
:1006600003F00063B3F1006F01D1012008E093684B
:1006700003F08053B3F1805F01D1022000E0042039
:10068000042874D002F5C07303EB00131B6803F059
:10069000010402F5C07303EB00131C600B7A7BB9F5
:1006A0004B7A0C8843EA445302F5C07404EB0014FF
:1006B0002468234302F5C07404EB0014236010E0A7
:1006C0000B7A4C6843EAC4034C7A234302F5C074A6
:1006D00004EB00142468234302F5C07404EB0014F7
:1006E00023608B7A03F00F038B7202F5C07303EB68
:1006F00000135B6823F00F0402F5C07303EB0013D3
:100700005C6002F5C07303EB00135B688C7A2343D3
:1007100002F5C07404EB001463608B7B1C064B7BFA
:1007200044EA03440B7B44EA0323CC7A234302F5D7
:10073000C07404EB0014A3608B7C1C064B7C44EA61
:1007400003440B7C44EA0323CC7B234302F5C074AF
:1007500004EB0014E36002F5C07303EB00131B68A5
:1007600043F0010402F5C07303EB00131C6010BDDD
:1007700010B50246002321B1012907D002290FD16B
:1007800009E090681D4C00EA04030BE090681C4CE3
:1007900000EA040306E090681A4C00EA040301E052
:1007A000002300BF00BF184C181BA34216D007DC63
:1007B00083B16FF08060184470B1022818D111E045
:1007C000B0F5007F10D0114C204448B1B0F5003F87
:1007D0000ED10BE002230DE000230BE0002309E023
:1007E000002307E0012305E0012303E0012301E0EA
:1007F000002300BF00BFD8B210BD000003000004FA
:100800000003000800000310000100080001FFF7CA
:1008100010B500F0DFFC00F087FD10BD7047704799
:100820007047704721B1026842F00102026004E0A3
:1008300002684FF6FE731A400260704710B500223E
:10084000026847F6F0739A430C6A8B6823430C697D
:1008500023434C6923438C692343CC6923434C6A6B
:1008600023438C6A23431A430260CB6843600B68BE
:1008700083604B68C36010BD70472DE9F0410246AC
:1008800000250026002000230024002791F803C043
:100890000CF00F0591F803C00CF0100CBCF1000F28
:1008A00003D091F802C04CEA050591F800C0BCF1F4
:1008B000000F31D0146800202BE04FF0010C0CFA2F
:1008C00000F3B1F800C00CEA03069E4220D1830079
:1008D0004FF00F0C0CFA03F7BC4305FA03FC4CEA8B
:1008E000040491F803C0BCF1280F06D14FF0010CAD
:1008F0000CFA00FCC2F814C00AE091F803C0BCF185
:10090000480F05D14FF0010C0CFA00FCC2F810C0E2
:10091000401C0828D1D31460B1F800C0BCF1FF0F0F
:1009200034DD546800202EE000F1080C4FF001087F
:1009300008FA0CF3B1F800C00CEA03069E4221D17C
:1009400083004FF00F0C0CFA03F7BC4305FA03FCCD
:100950004CEA040491F803C0BCF1280F05D100F162
:10096000080C08FA0CF8C2F8148091F803C0BCF126
:10097000480F07D100F1080C4FF0010808FA0CF8F5
:10098000C2F81080401C0828CED35460BDE8F08126
:10099000F0B50A46002300240021002500F000469F
:1009A000B6F1004F02D11D4EF16901E01B4E716896
:1009B000C0F3034583B200F44016B6F5401F08D1DA
:1009C00021F07061154E766826F07066134F7E60D8
:1009D00012E000F48016B6F5801F06D1032606FA51
:1009E00005F4A14341F0706106E0460D360103FABB
:1009F00006F6B14341F0706122B1460D360103FAAB
:100A000006F6314300F00046B6F1004F02D1034E26
:100A1000F16101E0014E7160F0BD00000000014095
:100A20000246002093680B400BB1012000E000203B
:100A30007047416170470161704700BFFEE700BF2A
:100A4000FEE7704770B5002100230F22C47804B37D
:100A5000154C246804F4E064C4F5E064210AC1F193
:100A60000403CA40447804FA03F184781440214313
:100A700009010E4C0678A155047804F01F050124E5
:100A8000AC4005786D11AD0005F1E025C5F80041D9
:100A900009E0047804F01F050124AC40044D0678F9
:100AA000761145F8264070BD0CED00E000E400E052
:100AB00080E100E002490143024A116070470000F2
:100AC0000000FA050CED00E0704700000146002030
:100AD000034A506820F440400843506070470000CB
:100AE0000010024029B1064A52690243044B5A6180
:100AF00004E0034A52698243014B5A617047000087
:100B00000010024029B1064AD2690243044BDA615F
:100B100004E0034AD2698243014BDA617047000066
:100B20000010024029B1064A12690243044B1A61BF
:100B300004E0034A12698243014B1A6170470000C6
:100B40000010024029B1064A92690243044B9A619F
:100B500004E0034A92698243014B9A6170470000A6
:100B600000100240704710B500F002F810BD000000
:100B70000CB50020019000903348006840F48030AC
:100B80003149086000BF3048006800F40030009030
:100B90000198401C0190009818B90198B0F5A06F19
:100BA000F1D12948006800F4003010B10120009014
:100BB00001E0002000900098012843D123480068FC
:100BC00040F01000214908600846006820F003004A
:100BD00008600846006840F0020008601A48406853
:100BE000194948600846406848600846406840F433
:100BF000806048600846406820F47C1048600846E1
:100C0000406840F4E81048600846006840F0807092
:100C1000086000BF0C48006800F000700028F9D0A0
:100C20000948406820F003000749486008464068CA
:100C300040F00200486000BF0348406800F00C002C
:100C40000828F9D10CBD000000100240002002402D
:100C500010B501201749087017480068401C164954
:100C6000086016480078401C14490870FFF7D0FD52
:100C700012480078012801D1FFF7D3FD0F48007812
:100C800000F0010008B9FFF7CAFD0C4800780328FE
:100C900003D00A480078072801D1FFF7C1FD0748B3
:100CA0000078082802D1002004490870FFF7B6FD3B
:100CB00010BD0000040000200000002005000020FE
:100CC00010B51348006840F001001149086008465B
:100CD0004068104908400E494860084600680E49BF
:100CE00008400B4908600846006820F4802008602E
:100CF0000846406820F4FE0048604FF41F008860FA
:100D0000FFF731FF4FF000600449086010BD00009C
:100D1000001002400000FFF8FFFFF6FE08ED00E0C3
:100D200010B51E4A00211E48FFF707FC1B4800684B
:100D300040F2013188422FD11848C07A012806D1EB
:100D40001849087041031848FFF773FE24E0134860
:100D5000C07A022818D113480078012814D1134909
:100D600008700E48007B062816D20C48407B28B13C
:100D700001210A48007B0E4A11540DE0002107486A
:100D8000007B0B4A115407E00020064908704FF41D
:100D900000510548FFF74FFE10BD00004C00002039
:100DA00000640040110000200010014012000020EB
:100DB0000B00002000BFFEE702E008C8121F08C1B8
:100DC000002AFAD170477047002001E001C1121FCC
:100DD000002AFBD17047000008B503208DF80200FF
:100DE00001211C20FFF7AEFE4FF40050ADF80000CB
:100DF00010208DF8030069463348FFF73EFD4FF49D
:100E00008050ADF8000010208DF8030069462F488F
:100E1000FFF733FD4FF40050ADF8000010208DF8BF
:100E2000030069462948FFF728FD4FF48040ADF8DC
:100E3000000010208DF8030069462448FFF71DFDCF
:100E40004FF48070ADF8000010208DF80300694663
:100E50001F48FFF712FD4FF48050ADF8000010203E
:100E60008DF8030069461A48FFF707FD0220ADF828
:100E7000000010208DF8030069461548FFF7FDFCBF
:100E80002020ADF8000028208DF8030069460F48A7
:100E9000FFF7F3FC4020ADF8000028208DF8030098
:100EA00069460A48FFF7E9FC8020ADF800002820D9
:100EB0008DF8030069460548FFF7DFFC4FF4005149
:100EC0000148FFF7B8FD08BD00100140000C0140CB
:100ED0000008014000B591B04FF40040FFF7F6FD67
:100EE000012140F20520FFF72DFE01210846FFF702
:100EF000F9FD01200390002002900A9034480190EF
:100F00004FF48060079080200590202008903148A1
:100F1000009080150690002004904FF40050099036
:100F200069462D48FFF78AFC01212B48FFF77AFC20
:100F30000120ADF8400000208DF8430003208DF81B
:100F4000420010A92548FFF798FC01208DF83100D8
:100F500000200E904FF460200D9000200B90012097
:100F60008DF83C008DF830000BA91A484C38FFF77B
:100F700015F901231A46002116484C38FFF736F9B7
:100F8000012114484C38FFF7DFF8012111484C3893
:100F9000FFF7E5F80F484C38FFF784F900BF0D481C
:100FA0004C38FFF7F1F80028F9D10A484C38FFF720
:100FB00089F900BF07484C38FFF7DCF80028F9D161
:100FC000012104484C38FFF772F911B000BD000050
:100FD000060000204C2401400800024000080140A7
:100FE00000B589B001210846FFF7ACFD4FF4E06081
:100FF000FFF760FD01214806FFF784FD4948FFF730
:1010000069F904A8FFF711FB00208DF816008DF890
:1010100017008DF8180001208DF8190000208DF8B8
:101020001A0001208DF81B0000208DF812008DF8A9
:10103000130004208DF8140005208DF815000320FE
:10104000ADF8100004A93748FFF7EDF900208DF83E
:101050000A0001208DF80B0000208DF80C0046F2EC
:101060002000ADF800004020ADF802006020ADF88F
:1010700004008020ADF806000020ADF80800012033
:101080008DF80D006846FFF741F90122022125483D
:10109000FFF7C0F914208DF81C0001208DF81D0009
:1010A0008DF81E008DF81F0007A8FFF7CBFC01216B
:1010B0000820FFF747FD4FF48070ADF820000420B2
:1010C0008DF8230003208DF8220008A91648FFF7A9
:1010D000D4FB4FF40070ADF8200018208DF82300E9
:1010E00003208DF8220008A90F48FFF7C6FB012155
:1010F0004FF4EA10FFF74CFC40F201300B49086056
:10110000002048720872C8720021084801734173B8
:101110008173C1730174417481740820034988721A
:1011200009B000BD00640040000C01403800002000
:10113000002000BF0AE000210A4A11540A4A22F89E
:1011400010100A4A22F81010411CC8B20328F2D32A
:10115000002004E00021064A1154411CC8B20628B0
:10116000F8D3704708000020140000201A00002067
:101170000B00002010B5002400BF04E0002012493D
:101180000855601CC4B2032CF8DB4FF480510F48A3
:10119000FFF751FC02210D48FFF74DFC4FF4805141
:1011A0000B48FFF748FC4FF400510948FFF743FC98
:1011B0004FF480410648FFF73EFC4FF4807103482E
:1011C000FFF739FC10BD000020000020000801409E
:1011D000000C014010B5002400BF3CE01F4830F86F
:1011E00014101F48FFF71CFC01281AD100201D49CC
:1011F00021F814001C48005D01282AD01B4830F853
:101200001400401C194921F81400084630F8140055
:1012100008281ED3002021F8140001201249085587
:1012200017E00020114921F814000F48005D80B13B
:101230000C4830F81400401C0A4921F814000846F4
:1012400030F81400082804D3002021F814000649BF
:101250000855601CC4B2032CC0D310BD9C150008F7
:10126000000C01401A00002008000020140000209B
:1012700000F052F917480068C822B0FBF2F1B1F152
:10128000807F00D31DE021F07F40401E4FF0E02220
:10129000506150170F22002807DA13071D0E0E4B5E
:1012A00000F00F04241F1D5503E013071C0E0B4B09
:1012B0001C5400BF00204FF0E02290610720106115
:1012C00000BF06E006480078012802D1002004494A
:1012D0000870F7E72400002018ED00E000E400E0CB
:1012E000040000201CB50F4800788DF800000D4860
:1012F00040788DF801000B4880788DF802000020BE
:101300008DF803008DF804008DF805008DF80600B7
:101310008DF807006A46082140F2023000F008F913
:101320001CBD00000800002010B508480078012806
:1013300009D107480078012807D100F09FF8002064
:101340000349087001E000F005F810BD110000200D
:101350001200002010B544480078444909788842BA
:1013600018D042480078012807D102214048FFF7F1
:1013700060FB01203F49487106E002213C48FFF72D
:101380005AFB00203B494871FFF7ACFF3748007813
:10139000354908703448407834494978884226D025
:1013A0003248407801280ED181033348FFF741FBD2
:1013B00001203049887001022D48FFF73AFB0120D7
:1013C0002C49C8700FE04FF480412B48FFF733FBE6
:1013D0000020284988704FF480712548FFF72BFBC7
:1013E00000202449C870214840781F4948701E4891
:1013F00080781E498978884235D01C488078012839
:1014000015D101031C48FFF714FB0120194908708E
:1014100041031948FFF70DFB0120164948700103ED
:101420001348FFF706FB01201249087117E04FF43B
:1014300080511148FFF7FFFA00200E4908704FF461
:1014400000510D48FFF7F7FA00200A4948704FF4A1
:1014500080510748FFF7EFFA00200649087103485A
:1014600080780149887010BD20000020080000200D
:10147000000801400B000020000C014010B523487B
:101480000078012804D101032148FFF7D2FA04E0D3
:101490004FF400511E48FFF7CEFA1C48407801284F
:1014A00004D141031A48FFF7C4FA04E04FF4005195
:1014B0001748FFF7C0FA1548C078012804D1010287
:1014C0001448FFF7B6FA04E04FF480711148FFF7B3
:1014D000B2FA0E480079012804D101030D48FFF744
:1014E000A8FA04E04FF480510A48FFF7A4FA07482D
:1014F0004079012804D102210648FFF79AFA03E057
:1015000002210448FFF797FA10BD00000B000020ED
:10151000000C01400008014010B5FFF75DFCFFF72B
:1015200007FEFFF727FEFFF7D5FCFFF759FD10BDBB
:101530002DE9F04780460D4691464FF0000A002401
:101540001448C0F8008000201249486048720872B0
:101550008D7200BF05E019F804100E480B300155DC
:10156000641CAC42F7DB0B490B48FFF76EF80646EC
:1015700006E031460848FFF7FBF807460AF1010A82
:10158000012F03D04FF6FF708245F2D13046BDE8FF
:10159000F087000038000020006400402000400078
:1015A00080000000C4150008000000203800000082
:1015B000B80D0008FC1500083800002028040000C1
:1015C000C80D00080000000000000000000000003E
:1015D000000000000000000000000000000000000B
:1015E000000000000000000000A24A04000000000B
:0C15F000000000000102030406070809C7
:04000005080000ED02
:00000001FF
